:020000040800F2
:1000000000500020FD320008511600085516000867
:10001000591600085D16000861160008000000006F
:10002000000000000000000000000000651600084D
:1000300069160008000000006D160008711600081F
:1000400045330008453300084533000845330008B0
:1000500045330008453300084533000845330008A0
:100060004533000845330008453300084533000890
:100070004533000845330008453300084533000880
:100080004533000845330008453300084533000870
:100090004533000845330008453300084533000860
:1000A0004533000845330008453300084533000850
:1000B000453300087516000845330008453300082D
:1000C0004533000845330008453300084533000830
:1000D0004533000845330008453300084533000820
:1000E0004533000845330008453300080000000090
:1000F0000000000000000000000000000000000000
:0C01000000000000000000005FF808F1A3
:100110004FF0FF0C1CEAD0521EBF1CEAD15392EAEA
:100120000C0F93EA0C0F6FD01A4480EA010C4002C6
:1001300018BF5FEA41211ED04FF0006343EA501020
:1001400043EA5111A0FB01310CF00040B1F5000F62
:100150003EBF490041EAD3715B0040EA010062F111
:100160007F02FD2A1DD8B3F1004F40EBC25008BFFB
:1001700020F00100704790F0000F0CF0004C08BF19
:1001800049024CEA502040EA51207F3AC2BFD2F1E6
:10019000FF0340EAC250704740F400004FF00003F4
:1001A000013A5DDC12F1190FDCBF00F0004070472E
:1001B000C2F10002410021FA02F1C2F1200200FA6C
:1001C00002FC5FEA310040F1000053EA4C0308BF33
:1001D00020EADC70704792F0000F00F0004C02BF84
:1001E000400010F4000F013AF9D040EA0C0093F0FF
:1001F000000F01F0004C02BF490011F4000F013B59
:10020000F9D041EA0C018FE70CEAD15392EA0C0FC6
:1002100018BF93EA0C0F0AD030F0004C18BF31F031
:10022000004CD8D180EA010000F00040704790F007
:10023000000F17BF90F0004F084691F0000F91F0AB
:10024000004F14D092EA0C0F01D142020FD193EA71
:100250000C0F03D14B0218BF084608D180EA0100F9
:1002600000F0004040F0FE4040F40000704740F0D5
:10027000FE4040F44000704781F0004102E000BFC2
:1002800083F0004330B54FEA41044FEA430594EA56
:10029000050F08BF90EA020F1FBF54EA000C55EA91
:1002A000020C7FEA645C7FEA655C00F0E2804FEA62
:1002B0005454D4EB5555B8BF6D420CDD2C4480EA44
:1002C000020281EA030382EA000083EA010180EA74
:1002D000020281EA0303362D88BF30BD11F0004FC2
:1002E0004FEA01314FF4801C4CEA113102D04042F8
:1002F00061EB410113F0004F4FEA03334CEA133333
:1003000002D0524263EB430394EA050F00F0A7804A
:10031000A4F10104D5F1200E0DDB02FA0EFC22FA45
:1003200005F2801841F1000103FA0EF2801843FA39
:1003300005F359410EE0A5F120050EF1200E012A2A
:1003400003FA0EFC28BF4CF0020C43FA05F3C01868
:1003500051EBE37101F0004507D54FF0000EDCF1E1
:10036000000C7EEB00006EEB0101B1F5801F1BD38A
:10037000B1F5001F0CD349085FEA30004FEA3C0C8E
:1003800004F101044FEA445212F5800F80F09A8084
:10039000BCF1004F08BF5FEA500C50F1000041EB88
:1003A000045141EA050130BD5FEA4C0C404141EB8C
:1003B0000101013C28BFB1F5801FE9D291F0000F87
:1003C00004BF01460020B1FA81F308BF2033A3F136
:1003D0000B03B3F120020CDA0C3208DD02F1140C2D
:1003E000C2F10C0201FA0CF021FA02F10CE002F168
:1003F0001402D8BFC2F1200C01FA02F120FA0CFC61
:10040000DCBF41EA0C019040E41AA2BF01EB0451A9
:10041000294330BD6FEA04041F3C1CDA0C340EDCA7
:1004200004F11404C4F1200220FA04F001FA02F3EA
:1004300040EA030021FA04F345EA030130BDC4F1A8
:100440000C04C4F1200220FA02F001FA04F340EA9D
:100450000300294630BD21FA04F0294630BD94F04E
:10046000000F83F4801306BF81F480110134013D35
:100470004EE77FEA645C18BF7FEA655C29D094EAA6
:10048000050F08BF90EA020F05D054EA000C04BF24
:100490001946104630BD91EA030F1EBF002100200F
:1004A00030BD5FEA545C05D14000494128BF41F0AE
:1004B000004130BD14F580043CBF01F5801130BD12
:1004C00001F0004545F0FE4141F470014FF000009D
:1004D00030BD7FEA645C1ABF194610467FEA655C4E
:1004E0001CBF0B46024650EA013406BF52EA0335F0
:1004F00091EA030F41F4002130BD00BF90F0000FDE
:1005000004BF0021704730B54FF4806404F1320419
:100510004FF000054FF0000150E700BF90F0000FD2
:1005200004BF0021704730B54FF4806404F13204F9
:1005300010F0004548BF40424FF000013EE700BFC9
:1005400042004FEAE2014FEA31014FEA02701FBF59
:1005500012F07F4393F07F4F81F06051704732F08B
:100560007F4208BF704793F07F4F04BF41F40021E2
:10057000704730B54FF4607401F0004521F0004140
:100580001CE700BF50EA010208BF704730B54FF0CA
:1005900000050AE050EA010208BF704730B511F0CB
:1005A000004502D5404261EB41014FF4806404F103
:1005B00032045FEA915C3FF4D8AE4FF003025FEA89
:1005C000DC0C18BF03325FEADC0C18BF033202EB0D
:1005D000DC02C2F1200300FA03FC20FA02F001FA67
:1005E00003FE40EA0E0021FA02F11444BDE600BF0A
:1005F00070B54FF0FF0C4CF4E06C1CEA11541DBFB9
:100600001CEA135594EA0C0F95EA0C0F00F0DEF883
:100610002C4481EA030621EA4C5123EA4C5350EA68
:10062000013518BF52EA033541F4801143F48013B9
:1006300038D0A0FB02CE4FF00005E1FB02E506F04A
:100640000042E0FB03E54FF00006E1FB03569CF09F
:10065000000F18BF4EF0010EA4F1FF04B6F5007FA5
:1006600064F5407404D25FEA4E0E6D4146EB060617
:1006700042EAC62141EA55514FEAC52040EA5E50A0
:100680004FEACE2EB4F1FD0C88BFBCF5E06F1ED84A
:10069000BEF1004F08BF5FEA500E50F1000041EB81
:1006A000045170BD06F0004646EA010140EA02002E
:1006B00081EA0301B4EB5C04C2BFD4EB0C0541EA50
:1006C000045170BD41F480114FF0000E013C00F365
:1006D000AB8014F1360FDEBF002001F0004170BD89
:1006E000C4F10004203C35DA0C341BDC04F11404A2
:1006F000C4F1200500FA05F320FA04F001FA05F22E
:1007000040EA020001F0004221F0004110EBD370FA
:1007100021FA04F642EB06015EEA430E08BF20EA26
:10072000D37070BDC4F10C04C4F1200500FA04F3C9
:1007300020FA05F001FA04F240EA020001F000415B
:1007400010EBD37041F100015EEA430E08BF20EACE
:10075000D37070BDC4F1200500FA05F24EEA020E16
:1007600020FA04F301FA05F243EA020321FA04F045
:1007700001F0004121FA04F220EA020000EBD370FC
:100780005EEA430E08BF20EAD37070BD94F0000FFC
:100790000FD101F00046400041EB010111F4801F30
:1007A00008BF013CF7D041EA060195F0000F18BFE1
:1007B000704703F00046520043EB030313F4801F1D
:1007C00008BF013DF7D043EA0603704794EA0C0FD7
:1007D0000CEA135518BF95EA0C0F0CD050EA4106ED
:1007E00018BF52EA4306D1D181EA030101F000416A
:1007F0004FF0000070BD50EA410606BF1046194692
:1008000052EA430619D094EA0C0F02D150EA01369D
:1008100013D195EA0C0F05D152EA03361CBF1046DE
:1008200019460AD181EA030101F0004141F0FE417D
:1008300041F470014FF0000070BD41F0FE4141F401
:10084000780170BD70B54FF0FF0C4CF4E06C1CEA01
:1008500011541DBF1CEA135594EA0C0F95EA0C0FB6
:1008600000F0A7F8A4EB050481EA030E52EA033571
:100870004FEA013100F088804FEA03334FF0805592
:1008800045EA131343EA12634FEA022245EA1115BF
:1008900045EA10654FEA00260EF000419D4208BF70
:1008A000964244F1FD0404F5407402D25B084FEA1D
:1008B0003202B61A65EB03055B084FEA32024FF4C9
:1008C00080104FF4002CB6EB020E75EB030E22BF26
:1008D000B61A754640EA0C005B084FEA3202B6EBE6
:1008E000020E75EB030E22BFB61A754640EA5C0095
:1008F0005B084FEA3202B6EB020E75EB030E22BF25
:10090000B61A754640EA9C005B084FEA3202B6EB25
:10091000020E75EB030E22BFB61A754640EADC00E4
:1009200055EA060E18D04FEA051545EA16754FEA46
:1009300006164FEAC30343EA52734FEAC2025FEA64
:100940001C1CC0D111F4801F0BD141EA00014FF0F3
:1009500000004FF0004CB6E711F4801F04BF0143C4
:100960000020B4F1FD0C88BFBCF5E06F3FF6AFAEE0
:10097000B5EB030C04BFB6EB020C5FEA500C50F170
:10098000000041EB045170BD0EF0004E4EEA1131F3
:1009900014EB5C04C2BFD4EB0C0541EA045170BDFA
:1009A00041F480114FF0000E013C90E645EA060E3E
:1009B0008DE60CEA135594EA0C0F08BF95EA0C0F6C
:1009C0003FF43BAF94EA0C0F0AD150EA01347FF4B4
:1009D00034AF95EA0C0F7FF425AF104619462CE78B
:1009E00095EA0C0F06D152EA03353FF4FDAE1046EE
:1009F000194622E750EA410618BF52EA43067FF43F
:100A0000C5AE50EA41047FF40DAF52EA43057FF4CE
:100A1000EBAE12E780F0004002E000BF81F0004141
:100A200042001FBF5FEA410392EA030F7FEA226C94
:100A30007FEA236C6AD04FEA1262D2EB1363C1BF24
:100A4000D218414048404140B8BF5B42192B88BF93
:100A5000704710F0004F40F4000020F07F4018BFB6
:100A6000404211F0004F41F4000121F07F4118BFD6
:100A7000494292EA030F3FD0A2F1010241FA03FC7E
:100A800010EB0C00C3F1200301FA03F100F0004366
:100A900002D5494260EB4000B0F5000F13D3B0F12E
:100AA000807F06D340084FEA310102F10102FE2A9D
:100AB00051D2B1F1004F40EBC25008BF20F001000D
:100AC00040EA03007047490040EB0000013A28BFAC
:100AD000B0F5000FEDD2B0FA80FCACF1080CB2EB2F
:100AE0000C0200FA0CF0AABF00EBC25052421843AD
:100AF000BCBFD0401843704792F0000F81F4000152
:100B000006BF80F400000132013BB5E74FEA410324
:100B10007FEA226C18BF7FEA236C21D092EA030F90
:100B200004D092F0000F08BF0846704790EA010F0A
:100B30001CBF0020704712F07F4F04D1400028BF37
:100B400040F00040704712F100723CBF00F5000019
:100B5000704700F0004343F0FE4040F4000070474F
:100B60007FEA226216BF08467FEA236301464202FB
:100B700006BF5FEA412390EA010F40F4800070470E
:100B80004FF0000304E000BF10F0004348BF4042B4
:100B90005FEA000C08BF704743F0964301464FF0F0
:100BA00000001CE050EA010208BF70474FF000034C
:100BB0000AE000BF50EA010208BF704711F000438D
:100BC00002D5404261EB41015FEA010C02BF84465D
:100BD0000146002043F0B64308BFA3F18053A3F5BC
:100BE0000003BCFA8CF2083AA3EBC25310DB01FA03
:100BF00002FC634400FA02FCC2F12002BCF1004F87
:100C000020FA02F243EB020008BF20F00100704717
:100C100002F1200201FA02FCC2F1200250EA4C006B
:100C200021FA02F243EB020008BF20EADC707047B1
:100C30004FF0FF3C06E000BF4FF0010C02E000BFA8
:100C40004FF0010C4DF804CD4FEA40024FEA41034A
:100C50007FEA226C18BF7FEA236C11D001B052EA00
:100C6000530C18BF90EA010F58BFB2EB030088BFC6
:100C7000C81738BF6FEAE17018BF40F00100704735
:100C80007FEA226C02D15FEA402C05D17FEA236C17
:100C9000E4D15FEA412CE1D05DF8040B704700BF5E
:100CA000844608466146FFE70FB5FFF7C9FF0028F5
:100CB00048BF10F1000F0FBD4DF808EDFFF7F4FF2E
:100CC0000CBF012000205DF808FB00BF4DF808EDC7
:100CD000FFF7EAFF34BF012000205DF808FB00BFEA
:100CE0004DF808EDFFF7E0FF94BF012000205DF80C
:100CF00008FB00BF4DF808EDFFF7D2FF94BF0120BD
:100D000000205DF808FB00BF4DF808EDFFF7C8FFB5
:100D100034BF012000205DF808FB00BF42000ED266
:100D2000B2F1FE4F0BD34FF09E03B3EB126209D426
:100D30004FEA002343F0004323FA02F070474FF0DC
:100D40000000704712F1610F01D1420202D14FF051
:100D5000FF3070474FF00000704700BF00F13401D2
:100D600091E838009C46A6464CF8045D90E8FF0FD9
:100D7000E54600BD90EC210B704700BF80EC210BD5
:100D8000704700BF90EC200B704700BF80EC200B39
:100D9000704700BFD0EC200B704700BFC0EC200BA9
:100DA000704700BFF0EC0201F0EC0211F0EC022100
:100DB000F0EC0231F0EC0241F0EC0251F0EC026197
:100DC000F0EC0271F0EC0281F0EC0291F0EC02A187
:100DD000F0EC02B1F0EC02C1F0EC02D1F0EC02E177
:100DE000F0EC02F1704700BFE0EC0201E0EC021110
:100DF000E0EC0221E0EC0231E0EC0241E0EC0251D7
:100E0000E0EC0261E0EC0271E0EC0281E0EC0291C6
:100E1000E0EC02A1E0EC02B1E0EC02C1E0EC02D1B6
:100E2000E0EC02E1E0EC02F1704700BFB0FC0181B0
:100E3000B0FC0191B0FC01A1B0FC01B1704700BF52
:100E4000A0FC0181A0FC0191A0FC01A1A0FC01B1CA
:100E5000704700BFEC4600B52DE900502DE9FF1F9B
:100E60004FF000032DE90C0001A902F059FDDDF857
:100E700040E012B0704700BFEC4600B52DE90050CD
:100E80002DE9FF1F4FF000032DE90C0001A902F02E
:100E900087FDDDF840E012B0704700BFEC4600B5BA
:100EA0002DE900502DE9FF1F4FF000032DE90C0044
:100EB00001A902F095FDDDF840E012B0704700BFD7
:100EC000EC4600B52DE900502DE9FF1F4FF000035F
:100ED0002DE90C0001AB02F057FDDDF840E012B047
:100EE000704700BFEC4600B52DE900502DE9FF1F0B
:100EF0004FF000032DE90C0001AA02F0CBFDDDF854
:100F000040E012B0704700BF844641EA000313F08E
:100F1000030349D1403A23D30B6803604B68436015
:100F20008B688360CB68C3600B6903614B69436165
:100F30008B698361CB69C3610B6A03624B6A43624D
:100F40008B6A8362CB6AC3620B6B03634B6B436335
:100F50008B6B8363CB6BC36340304031403ADBD251
:100F600030320BD30B6803604B6843608B6883603F
:100F7000CB68C36010301031103AF3D20C3205D375
:100F800051F8043B40F8043B043AF9D2043208D04B
:100F9000D2071CBF11F8013B00F8013B01D30B88BD
:100FA00003806046704700BF082A13D38B07B1D077
:100FB00010F00303AED0C3F10403D21ADB071CBF49
:100FC00011F8013B00F8013BA4D331F8023B20F8B3
:100FD000023B9FE7043AD9D3013A11F8013B00F8EC
:100FE000013BF9D20B7803704B7843708B78837098
:100FF000604670474FF0FF3C06E000BF4FF0010C29
:1010000002E000BF4FF0010C4DF804CD4FEA410C57
:101010007FEA6C5C4FEA430C18BF7FEA6C5C1BD024
:1010200001B050EA410C0CBF52EA430C91EA030FA5
:1010300002BF90EA020F0020704710F1000F91EA02
:10104000030F58BF994208BF90422CBFD8176FEAD0
:10105000E37040F0010070474FEA410C7FEA6C5C9E
:1010600002D150EA013C07D14FEA430C7FEA6C5CA5
:10107000D6D152EA033CD3D05DF8040B704700BFD1
:101080008446104662468C461946634600E000BF1F
:1010900001B5FFF7B7FF002848BF10F1000F01BDF1
:1010A0004DF808EDFFF7F4FF0CBF012000205DF8BC
:1010B00008FB00BF4DF808EDFFF7EAFF34BF012041
:1010C00000205DF808FB00BF4DF808EDFFF7E0FFDA
:1010D00094BF012000205DF808FB00BF4DF808ED2B
:1010E000FFF7CEFF94BF012000205DF808FB00BF92
:1010F0004DF808EDFFF7C4FF34BF012000205DF874
:1011000008FB00BF4FEA410C7FEA6C5C02D150EA59
:10111000013C0AD14FEA430C7FEA6C5C02D152EAEF
:10112000033C02D14FF0000070474FF001007047C0
:101130004FEA410212F5001215D211D56FF47873FF
:10114000B3EB625212D94FEAC12343F0004343EAA2
:10115000505311F0004F23FA02F018BF404270477D
:101160004FF00000704750EA013005D111F0004007
:1011700008BF6FF0004070474FF00000704700BF9D
:101180000348044B834202D0034B03B11847704716
:10119000C0060020C0060020000000000548064BE5
:1011A0001B1AD90F01EBA301491002D0034B03B165
:1011B00018477047C0060020C0060020000000004D
:1011C00010B5064C237843B9FFF7DAFF044B13B18F
:1011D0000448AFF300800123237010BDC006002037
:1011E00000000000BCAA000808B5054B1BB105496A
:1011F0000548AFF30080BDE80840FFF7CFBF00BF50
:1012000000000000C4060020BCAA00082DE9F0413F
:101210009C46044688469646064600F11C0700F1A7
:101220002405BCE80F000FC49CE8070084E8070011
:1012300098E8030087E80300BEE80F000FC59EE8AA
:10124000030085E803003046BDE8F08138B5044668
:1012500000F124054FF07C51284602F029F9284678
:1012600002F078F9218CE0690122BDE8384000F0F5
:1012700033BD00BF2DE9F041002488B0CDE904441E
:10128000CDE90644254BDFF898809A69254D42F058
:1012900020029A619A69404602F020020192019A66
:1012A0009A69242142F004029A619A69012702F0A6
:1012B00004020292029A9A69022642F008029A6196
:1012C0009B69224603F008030393039B00F004FD8F
:1012D000224628464FF4C05100F0FEFC04220023B1
:1012E000284604A9CDE90423069400F0D9FB242361
:1012F000404604A90493CDE90574079600F0D0FB9D
:101300004FF4C053284604A9CDE906460597049337
:1013100000F0C6FB08B0BDE8F08100BF001002403D
:10132000000C01400008014000234FF4804210B53A
:1013300009480A4C0A49046041608360C360026145
:1013400043618361C361036200F0CAFC00B910BD50
:10135000BDE8104000F0C4B8E00600200054004092
:10136000A08601000023D0B5144A016886B09142DE
:10137000CDE90233CDE9043301D006B0D0BD03225C
:10138000C02612270E4C0F48A36902A943F0080398
:10139000A361A369CDE9026703F008030093009BF2
:1013A000059200F07DFBE36943F40013E361E36918
:1013B00003F400130193019B06B0D0BD005400401C
:1013C00000100240000C01400023012230B5012032
:1013D00091B04FF480310224CDE90B33CDE90233D3
:1013E000CDE90433089301930A9209934FF48032B4
:1013F0004FF4E013CDE9060106A80D940E920F9369
:1014000000F0C2FE08B172B6FEE703460F254FF4A6
:101410008062214601A802940393059301950492EA
:1014200001F0A0F808B172B6FEE711B030BD00BF00
:10143000F8B500F08BFAFFF7C7FFFFF71BFFFFF7C8
:1014400073FF00F08FF800F005FA00F01BF900F0D0
:1014500093F91B4801F078FF1A48FFF7F7FE0122C5
:1014600002214FF07C53174802F0E8F80222154899
:101470004FF07C531146054602F0E0F81248002474
:10148000124E134F01F0D8FF07E020463146FFF718
:10149000C5FA0446C82000F07DFA0222284611460B
:1014A000234602F0CBF820460849FFF72DFC002820
:1014B000EBD120463946FFF7B3FA0446EAE700BF0E
:1014C000780800203C070020780700203333733F62
:1014D000CDCC4C3D014901F0E5BF00BF78070020AD
:1014E00072B6FEE710B5174996B0174802F036F805
:1014F0000423164C0C22164909A8ADF810300394A9
:1015000001F0A4FF4FF480500F214FF40062114B03
:10151000ADF8180005930793009107ABADF82020B4
:101520000D4905AA0FA802F02DF80FAB09AA03A9CF
:101530000A48FFF76BFE2022094B1C609A8016B008
:1015400010BD00BFE807002078070020000C014014
:101550003008002000080140E00600203C07002081
:101560003407002008B50A2200230A480A49C0E9C6
:101570000233C0E90013C0E90833C0E90A3203614D
:101580004361836101F0DEF800B908BDBDE80840A1
:10159000FFF7A6BF9007002000300140002330B5C0
:1015A000194A016887B09142CDE90233CDE904338D
:1015B00001D007B030BDB02403F1804303F50433FC
:1015C0009A6902A942F480529A619A690F4802F41A
:1015D00080520092009A9A69022542F004029A61B0
:1015E0009B69029403F004030193019B402400F0E3
:1015F00057FA0323054802A9CDE90245059300F0F7
:101600004FFA07B030BD00BF003001400008014074
:101610000D4B82B09A690D4942F001029A619A69B4
:1016200002F001020092009ADA6942F08052DA6117
:10163000DB6903F080530193019B4B6823F0E06367
:101640004B6002B0704700BF001002400000014034
:10165000FEE700BFFEE700BFFEE700BFFEE700BFFA
:10166000FEE700BF704700BF704700BF704700BF74
:1016700000F07EB9014801F0E7BB00BFE807002099
:10168000704700BF4FF08040002342F20F7180226C
:10169000D0B5374C94B020602046C4E90133CDE981
:1016A0000933CDE90D33CDE90F33CDE91133E160D5
:1016B000089302930C932361A2610B93039301F0AF
:1016C0009FF860BB4FF48053294808A9089301F0A4
:1016D0000DFB80BB264801F04DF948BB00220023DA
:1016E000234802A9CDE9022301F058FCE8B9002300
:1016F000602600270C221E480CA9CDE90C670E932A
:10170000109301F0F7F968B900232268CDE904339A
:10171000B2F1804FCDE9063310D014B0D0BDFFF741
:10172000DFFECFE7FFF7DCFEEEE7FFF7D9FEDEE7EF
:10173000FFF7D6FED2E7FFF7D3FECBE70826022756
:10174000022403F1804303F504339A69094842F007
:1017500004029A619B6904A903F004030193CDE993
:101760000467019B079400F09BF914B0D0BD00BF43
:101770003008002000080140002340F2644110B509
:1017800080227F24174886B0C0E90231CDE90333B7
:1017900002930093036105930193134B44608261AC
:1017A000036001F02DF890B94FF480530D4802A961
:1017B000029301F09BFA88B9002200236946094888
:1017C000CDE9002301F0EAFB20B906B010BDFFF718
:1017D00087FEE9E7FFF784FE06B010BDFFF780FE45
:1017E000EAE700BFE80700200004004000B50368F6
:1017F00083B0B3F1804F05D0144A934210D003B0A8
:101800005DF804FB03F50433DA6942F00102DA61A2
:10181000DB6903F001030093009B03B05DF804FB58
:1018200000220B4B1D20D96941F00201D961DB690F
:10183000114603F002030193019B00F0CFF81D2035
:1018400003B05DF804EB00F005B900BF00040040F0
:101850000010024000234FF4E1310C2210B509487A
:10186000094CC0E90113C0E903330460426183619C
:10187000C36101F0C9FB00B910BDBDE81040FFF71E
:101880002FBE00BF7808002000380140D0B50024EA
:101890001A4B026886B09A42CDE90244CDE904446D
:1018A00001D006B0D0BD03F558439A694FF40076D5
:1018B00042F480429A619A69022702F480420092BF
:1018C000009A9A6902A942F004029A619B690C4845
:1018D00003F0040301930323019A0593CDE9026702
:1018E00000F0DEF84FF480620023054802A9CDE93C
:1018F0000223049400F0D4F806B0D0BD00380140B3
:101900000008014038B54FF47A730D4A0546117846
:101910000C4AB3FBF1F31268B2FBF3F000F0A8F845
:1019200008B90F2D01D9012038BD044602462946C9
:101930004FF0FF3000F052F8034B20461D6038BDD9
:10194000040000200000002008000020074A08B51D
:101950001368032043F01003136000F02DF80F20EC
:10196000FFF7D0FFFFF754FE002008BD0020024023
:10197000034A044B11681B780B441360704700BF87
:10198000BC08002004000020014B1868704700BF0D
:10199000BC08002038B50446FFF7F6FF631C054677
:1019A00002D0044B1B781C44FFF7EEFF401BA04203
:1019B000FAD338BD040000204FF6FF0C064903029D
:1019C000CA6803F4E06302EA0C02134343F0BF6306
:1019D00043F40033CB60704700ED00E01B4B00B5D3
:1019E000DB68C3F30223C3F1070EBEF1040F03F15A
:1019F000040C28BF4FF0040EBCF1060F1CD9A3F154
:101A0000030C4FF0FF3303FA0CF322EA03024FF00A
:101A1000FF3303FA0EF321EA030303FA0CF3134333
:101A20001B010028DBB20ADB00F1604000F56140D9
:101A300080F800335DF804FB00229446E7E7044A8F
:101A400000F00F00024413765DF804FB00ED00E0A7
:101A5000FCEC00E0002807DB012300F01F01034A33
:101A600040098B4042F82030704700BF00E100E0A1
:101A70000138B0F1807F01D3012070474FF0E0239F
:101A80004FF0F00C0022072110B4044C586184F888
:101A900023C010469A6110BC1961704700ED00E048
:101AA0002DE9F04F0D6883B0002D00F0C3800022B7
:101AB000804E92461346DFF80082804F06E00133E5
:101AC00035FA03F402F1040200F0B48001249C40D2
:101AD00034EA050E04EA050CF1D14D68122D00F22E
:101AE000AC80122D1AD8DFE805F0B3C5C1CC1919A6
:101AF0001919191919191919191919BDC800DFF877
:101B0000C0E1754500F0A4800EF5702E754500F01B
:101B10009F80AEF5801E754500F09A80BCF1FF0FE6
:101B20009CBF864693464FF00F0584BF00F1040E1C
:101B3000A2F1200BDEF800400AFA0BF905FA0BFBC4
:101B400024EA0B0444EA0904CEF800404C6814F07F
:101B5000805F00F08580D6F818E003F003094EF0AE
:101B6000010EC6F818E0D6F818E04FEA89090EF021
:101B7000010ECDF804E0DDF804E023F0030E0EF1D1
:101B8000804E0EF5803EDEF808B005FA09F52BEA26
:101B90000505DFF830B1584513D00BF5806B58457B
:101BA00079D0DFF824B158456ED0DFF820B1584520
:101BB0000CBF4FF0030B4FF0040B0BFA09F945EA89
:101BC0000905CEF80850DFF808E114F4803FDEF88C
:101BD000005014BF45EA0C0525EA0C05CEF800506C
:101BE000DFF8ECE014F4003FDEF8045014BF45EADF
:101BF0000C0525EA0C05CEF80450DFF8D4E014F407
:101C0000801FDEF8085014BF45EA0C0525EA0C05D4
:101C1000CEF808502E4D14F4001FEC681DD044EA95
:101C20000C04EC600D68013335FA03F402F1040290
:101C30007FF44CAF03B0BDE8F08F454508D07FF688
:101C40005EAFBD4204D0DFF88CE075457FF466AF2F
:101C50008D683DBB4FF0040A60E724EA0C04EC6099
:101C60000D682CE7CC6804F1040A57E7CC6804F14E
:101C7000080A53E7D1F80CA050E7CC6804F10C0A2D
:101C80004CE74FF0000A49E74FF0020B0BFA09F955
:101C900045EA090595E74FF0010B0BFA09F945EA0A
:101CA00009058EE7012D4FF0080A0CBF046144615D
:101CB00034E700BF00100240000022100000311085
:101CC0000000121000080140001001400014014003
:101CD000000401400000321002B90904016170479C
:101CE000002800F0B68038B590F83D30044603F087
:101CF000FF02002B00F096802422236884F83D2008
:101D00001A6822F001021A601A6842F400421A604E
:101D10001A6822F400421A6000F0F4FC63684E4A2C
:101D200093424DD84D4A90427AD94D4D5A00A5FB69
:101D30000035431EB3FBF2F340F6FC7C2268A80C8E
:101D40005168013021F03F0141EA95415160116A2B
:101D5000013321F03F0101431162D16913EA0C0FF5
:101D600021F44F4121F0FF0161D104230B43D361E2
:101D70001168D4E9073021F0C00103430B4313601D
:101D80009168D4E9030321F40341034321F0FF01E7
:101D90000B439360D068D4E9053120F0FF000B437A
:101DA0000343D3601368002143F001031360202331
:101DB000216484F83D30216384F83E10084638BD24
:101DC000284A90422CD9264A274DA2FB002C4FF4DA
:101DD00096724FEA9C4102FB01F12268A5FB01517A
:101DE0005568890925F03F0545EA9C455560156A07
:101DF000013125F03F0529431162D169A56821F41D
:101E00004F41013821F0FF01A5B903EB4303B0FBBB
:101E1000F3F30133C3F30B03CBB143F40043A5E762
:101E2000012038BD80F83C20FFF79CFA64E7C3F33B
:101E30000B039BE703EB830303EB8303B0FBF3F399
:101E40000133C3F30B0313B143F440438EE7012383
:101E50008CE70120704700BFA08601007F841E0030
:101E600083DE1B43FF083D00D34D62102DE9F04F88
:101E7000054683B09946884692460C9FFFF784FD3D
:101E800095F83D30202B03D0022003B0BDE8F08F41
:101E9000064605E0FFF778FD801B192800F2218136
:101EA0002C68A3696FEA030C1CF0020BF2D095F8C2
:101EB0003C30012BE8D0012385F83C302368D9075A
:101EC00075D5002221201021236823F400632360AC
:101ED00085F83D0085F83E102A64A5F82A906B8DA0
:101EE000A2F58032EA622B85EB6AC5F824A0082BA4
:101EF00006D0012B04D0934202D02B6B122B03D1BE
:101F0000236843F4807323607B1C4CD16369D8073A
:101F1000FCD52B69B3F5804F4ED108F0FE03236149
:101F2000781C04D0B7E063695A0500F1E880636962
:101F30009907F8D5002301936369288D0193A3695C
:101F40000193019B002800F08D80791C49D16369C1
:101F50001A065AD463695B05F9D500236FF48061D2
:101F6000202261612B6385F83D2085F83E302B6C83
:101F700043F004032B6400222B6C85F83C20042BD7
:101F800040F0D1802A68136843F400731360CAE0FC
:101F9000FFF7FAFC801B8742C0F0C7802C682346FD
:101FA000002F00F0C3806369D907F1D5B1E723683A
:101FB00043F00103236084E74FEAE81303F00603CC
:101FC00043F0F0037A1C236104D073E06369590580
:101FD00000F1958063691807F8D55FFA88F32361EB
:101FE0009EE7636919060FD463695805B5D4FFF7F6
:101FF000CBFC801B8742C0F0AD80002F00F0AA8090
:102000002C6863691906EFD5288DD5F824C0431EC6
:10201000614611F8012B9BB222616A8D6962013A17
:1020200092B26A8562692B8552070CD55BB19CF828
:102030000130023823610CF102036B626B8D28853D
:10204000013B9BB26B85781C38D16369590705D475
:1020500063695A0581D463695907F9D5288D002829
:102060007FF473AF002320212268184642F40072E7
:10207000226085F83D1085F83C3085F83E3004E755
:1020800063695B053BD4FFF77FFC801B87426CD301
:10209000002F6AD02C6863699B07F1D54AE7636912
:1020A0005B052CD4FFF770FC831B9F425DD3002F90
:1020B0005BD02C6863691A07F1D58EE763695B070B
:1020C000CCD463695B053FF548AFFFF75DFC801B2F
:1020D00087423FD3002F3DD02C6863695B07F0D562
:1020E000BCE72023C5F830B085F83D3085F83EB018
:1020F0002B6C85F83CB043F020032B64C4E600222F
:102100006FF480602021236843F4007323606061D2
:102110002A6385F83D1085F83E202B6C85F83C201D
:1021200043F004032B640120AFE62B68002120223A
:10213000296385F83D2085F83E102A6C85F83C100F
:1021400042F020022A641B68DA05ECD54FF40073D4
:102150002B64E8E7002320222B6385F83D2085F8D7
:102160003E302B6C13432B6405E7002220232A63A7
:1021700085F83D3085F83E202B6C85F83C2043F0F7
:1021800020032B64CFE700BF002800F0E4812DE995
:10219000F04103680446DD0782B035D599494A68A5
:1021A00002F00C02042A00F0ED804A6802F00C02F2
:1021B000082A00F0E3806368B3F5803F10D0002B5D
:1021C00000F00A81B3F5A02F00F080818D4B1A68D2
:1021D00022F480321A601A6822F480221A6004E025
:1021E000884A136843F480331360FFF7CDFB854EB4
:1021F000054605E0FFF7C8FB401B642800F2E880B5
:1022000033689A03F6D523689F0728D57D4A51681D
:1022100011F00C0F00F09680516801F00C010829B4
:1022200000F08C802369002B00F016810122764B90
:10223000744E1A60FFF7A8FB054605E0FFF7A4FB04
:10224000401B022800F2C48033689807F6D5336833
:10225000626923F0F80343EAC203336023681A0774
:1022600029D45D074BD5674BDA69D00000F1848033
:102270000125DA6942F08052DA61DB6903F08053AC
:102280000093009B614E3368D90540F19180E3686B
:10229000012B00F0F280002B00F0BE80052B594B83
:1022A0001A6A00F0208122F001021A621A6A22F0F2
:1022B00004021A62E6E0A369002B4CD00122524BC3
:1022C000504EC3F88024FFF75FFB054604E0FFF79C
:1022D0005BFB401B02287BD8736A9B07F7D54C4BEE
:1022E0004C4A1B68A2FB03235B0A019300BF019BBE
:1022F0005A1E0192002BF9D123685D07B3D4E3691C
:10230000C3B1404D6A6802F00C02082A00F0CD808B
:102310000022022B3C4B1A6600F0ED80FFF734FBE5
:10232000044604E0FFF730FB001B022850D82B685E
:102330009B01F7D4002002B0BDE8F0815268D603BB
:102340003FF570AF2F4A1268950725D52269012AFB
:1023500022D00120EFE72C4A2A4EC2F88034FFF742
:1023600013FB054604E0FFF70FFB401B02282FD8A4
:10237000736A9F07F7D4BFE7002583E74A68D00355
:102380007FF519AF1F4A126891037FF53DAF626870
:10239000002A7FF439AFDCE71A4960690A6822F045
:1023A000F80242EAC0020A601A077FF55AAF82E7D4
:1023B000336843F480733360FFF7E6FA0746336807
:1023C000DA053FF564AFFFF7DFFAC01B6428F6D9E2
:1023D000032002B0BDE8F0810A4D2B6823F480335E
:1023E0002B602B6823F480232B60FFF7CDFA064681
:1023F00004E0FFF7C9FA801B6428E9D82B689B0327
:10240000F7D400E700100240000042420070004094
:1024100000000020D34D6210504E41F28838336ADC
:1024200023F001033362336A23F004033362FFF7BE
:10243000ABFA074604E0FFF7A7FAC01B4045C7D830
:10244000336A9807F7D4002D3FF459AF434AD36954
:1024500023F08053D36152E7414A404E1360FFF7A7
:1024600093FA054604E0FFF78FFA401B0228AFD825
:1024700033689907F7D42368F1E6384A136A43F0C2
:1024800001031362FFF780FA41F288380646334FA2
:1024900004E0FFF779FA801B404599D83B6A9B0717
:1024A000F7D5002D3FF42BAFD0E7012B3FF451AF10
:1024B0006B68226A03F4803191427FF44AAF606A0C
:1024C00003F47013181A18BF012034E703F1804396
:1024D000A3F53C331A6842F480221A601A6842F469
:1024E00080321A6081E642F004021A621A6A42F0EF
:1024F00001021A62C6E7FFF747FA064605E0FFF752
:1025000043FA801B02283FF663AF2B689901F6D48B
:10251000236AB3F5803F05D16A68A16822F40032CE
:102520000A436A6001200D4D616A6A680B4322F418
:1025300074120B4913436B600866FFF725FA0446D3
:1025400005E0FFF721FA001B02283FF641AF2B6898
:102550009A01F6D5EEE60120704700BF0010024058
:1025600000004242002800F0B1805E4A2DE9F041AF
:102570001368044603F007038B420D4686B00DD264
:10258000136823F007030B431360136803F007037A
:102590008B4203D0012006B0BDE8F08123689E077E
:1025A00014D5580704D550494A6842F4E0624A609D
:1025B000190704D54C494A6842F460524A604A49B6
:1025C000A0684A6822F0F00202434A60DA0720D588
:1025D0006268454B012A1B687AD0022A73D09E0795
:1025E000D8D5414E41F28838736823F00303134372
:1025F0007360FFF7C9F9074604E0FFF7C5F9C01B90
:10260000404568D87368626803F00C03B3EB820F2F
:10261000F3D1344A136803F00703AB4209D91368B6
:1026200023F007032B431360136803F00703AB4247
:10263000B0D12368580706D52B49E0684A6822F4D0
:10264000E06202434A60190707D5274A21695368A7
:1026500023F4605343EAC103536040F20124234B47
:1026600006AD0FCB05E90F001F49ADF804404A68DD
:1026700002F00C03082B11D01D4B1B4A1D48526859
:102680001D49C2F30312805C1C4AC34008681360F2
:10269000FFF738F9002006B0BDE8F081C2F38343AC
:1026A00018336B44D20313F8103C16D54A6810490E
:1026B000C2F3404201FB03F318326A4412F8142CAF
:1026C000B3FBF2F3D9E79F018BD463E70120704796
:1026D0009B0386D45EE703205DE7094A02FB03F310
:1026E000CBE700BF0020024000100240F0AA000823
:1026F00000127A00E0AA0008080000200000002074
:1027000000093D00044B054A5B680549C3F30223F9
:10271000CB5C1068D84070470010024000000020D9
:10272000D8AA0008044B054A5B680549C3F3C223D5
:10273000CB5C1068D84070470010024000000020B9
:10274000D8AA0008002858D0F8B5436A0446002BE0
:1027500044D0002303614361002094F85130A0620B
:1027600003F0FF02002B3FD0D4E9013202264FF0E4
:10277000010C002502F4044203F482731343E2685F
:1027800084F85160266902F40062134306F00206E1
:1027900033436669A169276A06EA0C063343E66992
:1027A00007F0800E01F4007706F038063B432268FC
:1027B000334343EA0E0303431068090C01F004019C
:1027C00020F04000106013605160D369284623F464
:1027D0000063D361656584F851C0F8BD4268B2F505
:1027E000827FB9D0C361B7E7204684F85020FEF756
:1027F000D5FEA06A00F40050B6E70120704700BF84
:10280000002860D070B590F83D30044603F0FF0218
:10281000002B42D0D4E9002102232C4E84F83D3015
:10282000B242E068A56913683CD0B2F1804F0ED087
:10283000A6F59436B2420AD006F58066B24206D0BA
:1028400023F080032B431360D06291620DE0A668F1
:1028500023F070033343266923F44073334323F09A
:1028600080031D431560D06291620123536184F897
:10287000463084F83E3084F83F3084F8403084F8A5
:10288000413084F8423084F8433084F8443084F88E
:10289000453084F83D30002070BD80F83C20FEF7C4
:1028A000A5FFB7E7A66823F070033343266923F436
:1028B0004073334323F080032B431360D062916253
:1028C00063691363D1E70120704700BF002C01400A
:1028D00090F83D30012B1CD1022103680E4A80F88C
:1028E0003D1093420AD0B3F1804F07D0A2F5943245
:1028F000934203D002F58062934204D19A6802F0B9
:102900000702062A03D01A6842F001021A6000206A
:1029100070470120704700BF002C014090F83D3007
:10292000012B1FD10222036880F83D20DA680E498E
:1029300042F001028B42DA6009D0B3F1804F06D039
:102940000A4A934203D002F58062934204D19A6806
:1029500002F00702062A03D01A6842F001021A6048
:102960000020704701207047002C01400004004007
:10297000704700BF002860D070B590F83D30044625
:1029800003F0FF02002B42D0D4E9002102232C4E99
:1029900084F83D30B242E068A56913683CD0B2F1DA
:1029A000804F0ED0A6F59436B2420AD006F5806666
:1029B000B24206D023F080032B431360D0629162B1
:1029C0000DE0A66823F070033343266923F44073B7
:1029D000334323F080031D431560D06291620123CD
:1029E000536184F8463084F83E3084F83F3084F8F0
:1029F000403084F8413084F8423084F8433084F821
:102A0000443084F8453084F83D30002070BD80F8B3
:102A10003C20FFF7ADFFB7E7A66823F07003334310
:102A2000266923F44073334323F080032B43136060
:102A3000D062916263691363D1E70120704700BFE0
:102A4000002C014039BB90F83E30012B2FD10223DE
:102A500080F83E300122036801F01F01186A8A40A5
:102A600020EA020010B41862196A204C0A43A342FB
:102A70001A621ED0B3F1804F1FD01D4A93421CD062
:102A800002F58062934218D01A68002042F00102D9
:102A900010BC1A607047042917D008291DD090F87F
:102AA0004130012B03D1022380F84130D2E70120CD
:102AB00070475A6C42F400425A649A6802F0070266
:102AC000062AE1D1002010BC704790F83F30012B5E
:102AD000EDD1022380F83F30BCE790F84030012B65
:102AE000E5D1022380F84030B4E700BF002C01405C
:102AF00000040040034690F83C00012800F0C0802C
:102B00000120F0B483F83C000C2A2DD8DFE802F055
:102B1000072C2C2C602C2C2C8D2C2C2C32001A6881
:102B20000E68106A20F001001062106A55689469FE
:102B300020F0020024F0730434438E6830436A4E60
:102B4000B24200F09F8055604D6894610C695563F6
:102B50001062916941F008019161916921F00401CD
:102B60009161916921439161002283F83C201046D4
:102B7000F0BC70471A680E68106A20F4805010622A
:102B8000106A5568D46920F4005024F4E64444EAFD
:102B900006248E6840EA0630534EB24200F08E8022
:102BA00055604D68D4610C6915641062D16941F4B7
:102BB0000061D161D16921F48061D161D16941EABB
:102BC0000421D161002283F83C201046F0BC7047FC
:102BD0001A680E68106A20F010001062106A5568BA
:102BE000946920F0200024F4E64444EA06248E6828
:102BF00040EA06103C4EB24251D055604D68946197
:102C00000C6995631062916941F400619161916969
:102C100021F480619161916941EA0421916100226E
:102C200083F83C201046F0BC70471A680E68106AA2
:102C300020F480701062106A5568D46920F4007026
:102C400024F0730434438E6840EA0620264EB242D4
:102C50003AD055604D68D4610C69D5631062D16972
:102C600041F00801D161D16921F00401D161D1693C
:102C70002143D161002283F83C201046F0BC70470C
:102C800002207047CE6820F00800304325F44075DC
:102C9000D1E905673E4320F00400354353E7CE6891
:102CA00020F0800040EA061025F44065D1E9056770
:102CB0003E4320F0400045EA86059EE74E6925F434
:102CC000804545EA86156BE7CE6820F4006040EA4F
:102CD000062025F44055D1E905673E4320F4806085
:102CE00045EA0615B5E700BF002C014090F83C20EE
:102CF000012A75D030B4034601240222006883F80B
:102D00003C4083F83D2084680A6824F47F4424F022
:102D10007704602A846065D031D8402A48D021D910
:102D2000502A16D14A68CC68016A21F00A01114381
:102D3000026A22F001020262826922F0F00242EA93
:102D4000041282610162826822F0700242F057022E
:102D500082600022012183F83C2083F83D10104658
:102D600030BC7047202A02D01ED9302AF1D18168A8
:102D700021F070010A4342F007028260E9E7702AFD
:102D800049D0B2F5005FE4D1D1E9015284682A4309
:102D9000CD6824F47F4142EA05220A4382608268BA
:102DA00042F480428260D4E732F01001D1D1DEE7F4
:102DB0004A68CC68016A21F00A011143026A22F0D4
:102DC00001020262826922F0F00242EA0412826188
:102DD0000162826822F0700242F047028260B8E726
:102DE00002207047026A4C6822F01002CD6802622D
:102DF0008169026A21F4704122F0A00242EA0412C1
:102E000041EA053181610262826822F0700242F07B
:102E1000670282609DE7D1E9015284682A43CD6848
:102E200024F47F4142EA05220A438260826842F02C
:102E3000770282608DE700BF704700BF704700BF18
:102E4000704700BF704700BF036810B51A69044699
:102E5000910702D5DA6892075FD41A69500702D544
:102E6000DA68510746D41A69120702D5DA681007E2
:102E70002ED41A69D20602D5DA68D00618D41A6997
:102E8000D10702D5DA68D2075DD41A69100602D5D7
:102E9000DA6811065FD41A69520602D5DA6850065C
:102EA00061D41A69910602D5DA68920643D410BD3E
:102EB0006FF01001082219612277DB69204613F4B4
:102EC000407F64D0FFF7BAFF002223682277D6E75D
:102ED0006FF00801042219612277DB692046990707
:102EE00052D1FFF7A9FF2046FFF7AAFF002223686F
:102EF0002277BEE76FF004010222196122779B69F5
:102F0000204613F4407F3CD1FFF796FF2046FFF7A1
:102F100097FF002223682277A5E76FF002010122C4
:102F2000196102779B699B0725D0FFF787FF002275
:102F30002368227791E76FF020022046BDE8104019
:102F40001A6100F05DB86FF0010220461A61FEF7C9
:102F5000C1FA236899E76FF0800220461A6100F0F9
:102F600051F8236897E76FF0400220461A61FFF797
:102F700069FF236895E7FFF75FFF2046FFF760FFD3
:102F8000D5E7FFF75BFFC4E7FFF758FFAEE7FFF7B2
:102F900053FF2046FFF754FF96E700BF90F83C2010
:102FA000012A27D0034602201A6830B483F83D0076
:102FB00050680C68104D20F070002043AA429468BD
:102FC000506009D0B2F1804F06D00C48824203D045
:102FD00000F58060824204D1496824F080040C43EB
:102FE00094600022012183F83C2083F83D101046B4
:102FF00030BC704702207047002C014000040040A4
:10300000704700BF704700BF002864D070B590F8CB
:103010003D30044603F0FF02002B54D0D4E90226D1
:103020002421236884F83D10D968206921F40051D7
:10303000A56902436069D9601969024321F44051CE
:1030400031431961D968254821F4B05121F00C01B0
:103050000A43DA605A69834222F4407242EA050266
:103060005A6135D0FFF74EFB626800EB8003920097
:1030700003EB8303B3FBF2F34FF0640E00254FF034
:10308000200C17482168A0FB036252090EFB123383
:103090001B013233A0FB0303120102EB53128A60BF
:1030A0000B69284623F490430B614B6923F02A03F4
:1030B0004B61CB6843F40053CB60256484F83DC07A
:1030C00084F83EC070BD80F83C20FEF7DFFBA5E72A
:1030D000FFF728FBC8E70120704700BF0038014018
:1030E0001F85EB512DE9F8431D4690F83D30202B0C
:1030F00057D1884600293FD01746002A3CD090F887
:103100003C300446012B4CD0212301224FF0000912
:1031100080F83C20C0F8409080F83D30FEF734FC49
:10312000A3680646B3F5805FA784E78447D00023F1
:10313000E28C84F83C3092B2236892B1691C25D1AC
:103140001A681206FCD5B8F1000F25D018F8012B2B
:103150005A60E28C013A92B2E284E28C92B2002A86
:10316000ECD1681C27D11A685106FCD5202384F8BD
:103170003D300020BDE8F8830120BDE8F88325B389
:10318000FEF702FC801B854223681ED31A681706CF
:10319000F5D5B8F1000FD9D139F8022BC2F30802E6
:1031A000D6E70220BDE8F8837DB1FEF7EDFB831B77
:1031B0009D42236809D31A685206F5D5D6E72369DC
:1031C000002BB4D1C1469846B1E7DA68202122F439
:1031D000D072DA605A69032022F001025A6100239A
:1031E00084F83D1084F83C3084F83E10BDE8F88344
:1031F0002DE9F8431F4690F83E30202B61D18846D8
:10320000002944D01646002A41D090F83C300446AC
:10321000012B56D0222301224FF0000980F83C20D8
:10322000C0F8409080F83E30C0F83090FEF7ACFB1C
:10323000A3680546B3F5805FA685E68544D00023E4
:1032400084F83C30E38D9BB2DBB1781C236828D135
:103250001A689106FCD5B8F1000F28D0A268B2F523
:10326000805F02D04ABB22693ABB5B68DBB208F8D8
:10327000013BE28D013A92B2E285E38D9BB2002BD5
:10328000E3D1202384F83E300020BDE8F8830120FC
:10329000BDE8F883F7B1FEF777FB401B8742236850
:1032A00018D31A689206F5D5B8F1000FD6D15B682D
:1032B000C3F3080329F8023BDBE75B6803F07F03F5
:1032C000D5E70220BDE8F8832369002BB7D1C146BA
:1032D0009846B4E720210025DA68032022F4D07252
:1032E000DA605A6922F001025A6184F83D1084F8CC
:1032F0003C5084F83E10BDE8F88300BF0C480D49EF
:103300000D4A002302E0D458C4500433C4188C4240
:10331000F9D30A4A0A4C002301E013600432A242A6
:10332000FBD3FEF7ADF904F063FDFEF781F87047BB
:1033300000000020C006002020B00008C0060020C9
:10334000DC0B0020FEE7000010B400230446054A11
:10335000054910680C6002221946806810BC03F011
:103360002DBF00BF84010020C0080020022801D822
:103370000120704708B504F035FD092203460020FE
:103380001A6008BD0138012810B50CD814460A4A45
:103390004FF0FF331068A2B2FFF7A4FE00280CBF65
:1033A0002046052010BD04F01DFD092203464FF004
:1033B000FF301A6010BD00BFC0080020022801D8ED
:1033C0000020704708B504F00DFD092203464FF0B8
:1033D000FF301A6008BD00BF08B504F003FD0922E4
:1033E00003464FF0FF301A6008BD00BF08B558B95A
:1033F00009484FF0FF3301220068FFF7F9FE00286B
:1034000014BF0520012008BD04F0ECFC092203468E
:103410004FF0FF301A6008BDC0080020022808B530
:1034200004D84FF4005300204B6008BD04F0DAFCD0
:1034300009230360002008BD10B504460068FFF7AB
:103440006DFA2068BDE81040FFF742BA38B5002594
:103450000B68C0E90012D96A04468560C1600C2A75
:103460001CD8DFE802F0181B1B1B151B1B1B121BB3
:103470001B1B070003F1400212689B6AC4E9042386
:10348000FFF750F9A060204638BD03F13C02F3E796
:1034900003F13802F0E703F13402EDE700231B6883
:1034A000FFDE00BF0B68181AB0FA80F040097047C1
:1034B00038B5D0E900321B680D46D96A0446C160B0
:1034C0000C2A44D8DFE802F02D4343432A43434308
:1034D00027434343070003F1400212689B6AC4E993
:1034E0000423FFF71FF90346E068A360FDF748FBDC
:1034F0002946FCF70DFEFDF711FCD4E900232061FD
:103500000C2B21D8DFE803F01C20202018202020DD
:1035100014202020100003F13C02DEE703F1380202
:10352000DBE703F13402D8E713684033186038BD95
:1035300013683C33186038BD13683833186038BDE1
:1035400013683433186038BD00231B60FFDE00238E
:103550001B68FFDE03C8FFF775BA00BF10B5002275
:1035600004460B680160D86A596B9B6AC4E9030181
:1035700063616260A260FFF7D5F803462046A3604E
:1035800010BD00BF70B504460E46A44611464FF06C
:10359000000E03C94CF8046B8CE8030093E80300A9
:1035A00004F10C0C8CE80300BDF810506068012297
:1035B0002189A582A4F816E084F818E0FEF78CFBB8
:1035C000204670BD2DE9F0414FF0FF34194D012721
:1035D000AD5C1A46804682B00094847D027644EA4F
:1035E000C104818A2C43120AC2758475B94000F166
:1035F0001602032358F8190B89B215460E4EFEF732
:1036000035FC0724297807FA04F319402141304694
:10361000013C00F0EDFE631CF4D12020013503F0E5
:10362000C5FD4545EDD10A2002B0BDE8F04103F0EB
:10363000BDBD00BF08AB000804AB000870B505466F
:103640000C46184607491646FCF762FDFDF766FB77
:103650000346324628462146BDE870409BB2FFF73C
:10366000B1BF00BF00FF7F4703685A004CBF43F063
:10367000004323F000431844704700BF2DE9F8438E
:1036800041B301F1FF380546164647460024E119CB
:1036900001EBD171491005EBC1094846FFF7E4FF82
:1036A000884503464FEAC1020ED002F10800B3423A
:1036B00028440BD8FFF7D8FF0138B04201F10104CC
:1036C000E5D34846BDE8F883B042FAD98C4201D030
:1036D0004F1EDCE74FF000094846BDE8F88300BF05
:1036E000012807D0022807D0044B00280CBF184639
:1036F000002070470248704702487047AD3D0008FF
:10370000B53D0008BD3D000830B5214B044683B0EF
:103710008D1E1BB3284601A9AFF3008088B3019921
:103720002A46FFF7ABFF014658B3FFF79DFF4B68F2
:10373000A064012B28D0002B01F104001FDBFFF750
:1037400093FF002323650368E064002B0DDBFFF784
:103750008BFF03460020236103B030BD0D4B0E49A3
:103760001846C91AC9100191DAE7C3F30360FFF7DD
:10377000B7FF034628B10020236103B030BD012309
:10378000E0E700230920E6E700230520E3E700BF88
:103790000000000018AF000810B00008036810B562
:1037A000DA07044606D49B0700F1500009D5FDF75F
:1037B000E9FA2368590709D51A070ED5DB0613D590
:1037C00010BDFDF7D7FA23685907F5D404F1D800E6
:1037D000FDF7E0FA23681A07F0D404F5AC70FDF7A2
:1037E000E1FA2368DB06EBD404F5EC70BDE8104089
:1037F000FDF71CBB0346006800B11844704700BFCA
:10380000704700BF70B504460E462046316CFFF786
:103810007BFF054698B9D6F840C0324621460120C4
:103820002369C4F814C098470828EED0072806D1A9
:103830002846316CFFF7E4FF301DFDF78FFAFFDEFD
:103840002DE9F0474FF0000AADF5767D0DF10C0E35
:1038500001F1040CC768D0F8188006461446BCE88D
:103860000F00AEE80F00BCE80F00AEE80F00BCE8A8
:103870000F00AEE80F009CE80F0002AD8EE80F00CD
:10388000C5F800A021E02B6C4FF4F4722946736157
:103890007CA8FDF739FB3146504633697CAA98472E
:1038A0008A9C8246AC643346324649460120CDE9C3
:1038B0000058B847044630BB4FF4F47228467CA940
:1038C000FDF722FBBAF1080F1AD13046296CFFF739
:1038D0001BFF04F109095FFA89FA04460028D2D0D7
:1038E000A96B3346A96432460120CDE900584AF05D
:1038F0001001B84738B920460DF5767DBDE8F08750
:10390000BAF1070F05D0092420460DF5767DBDE8F4
:10391000F0872046296CFFF773FF03A8FDF71EFA16
:10392000F0B54FF0FF37CB6BFBB00B6401AC01F18E
:10393000040C0E460546BCE80F000FC4BCE80F009F
:103940000FC4BCE80F000FC49CE80F0084E80F0010
:10395000009706E06A4629462B69984708280446DE
:1039600008D128461099FFF7CFFE0028F2D0092091
:103970007BB0F0BD6846FFF711FF062CF7D131464A
:103980002846FFF73FFF00BF10B414468461DC6B8C
:10399000C16000221C64194610BCFFF751BF00BF74
:1039A00070B54369C6680B64AEB90A46036904463C
:1039B0000D46014602209847072805D008280ED159
:1039C00029462046FFF71EFF3046296CFFF718FFF7
:1039D000281DFDF7C3F90122FFF732FFFFDEFFDEEE
:1039E000C26832B1D1F83CC00022C1F840C0FFF734
:1039F00027BFFFF795BF00BF052915D8DFE801F005
:103A00000A031403030501207047436C009A002049
:103A10001360704743B90F2A06D800EB820253683F
:103A2000009A00201360704702207047002300B501
:103A300085B00A4603A900911946FFF7DDFF0398F8
:103A400005B05DF804FB00BF052915D8DFE801F0DB
:103A50000A031403030501207047009B1B6843649D
:103A60000020704743B90F2A06D8009B00EB820262
:103A70001B6800205360704702207047002310B578
:103A800084B003AC039200940A461946FFF7DCFFAA
:103A900004B010BD70B54FF0FF36D36BADF5107D9F
:103AA00013640DF15C0E02F1040C05460C46BCE8F3
:103AB0000F00AEE80F00BCE80F00AEE80F00BCE856
:103AC0000F00AEE80F009CE80F008EE80F0016967E
:103AD00012E00C2116A86A46FFF7D0FF214616A86F
:103AE000A84778B969460820049B16AA9847052874
:103AF000064608D0092805D068462699FFF704FE37
:103B00000028E6D0092616A8FFF748FE30460DF536
:103B1000107D70BD2DE9F04F9346CA6C0D4652F8EA
:103B2000041B89B000F0030C0692002B79D002240C
:103B30000E0C8DF81D600904F6B2059102EB8602A9
:103B40002F6DBCF1020F08BFAA6B17F001078DF8AB
:103B50001C400CD0584605A900F0C4FA18B908203A
:103B600009B0BDE8F08F092009B0BDE8F08F1668F4
:103B7000002EEFD0B2466446994600F0080101914C
:103B80000297B9F1020F48D0B2F800A0568802F1AE
:103B90000408AB6C26F001020F215846D718FFF736
:103BA00045FF874237D82AF001023A44824294BF47
:103BB00000220122760006F002030AF0010A43EA1D
:103BC0000A03012B47D0022B31D0002BCBD114B1EB
:103BD000002A40F0CA8008F10402D2F800A0BAF12D
:103BE000000FCED1584605A9029F00F07BFA0028AD
:103BF000B9D1002FB3D00F215846FFF717FF0E2180
:103C000002465846FFF73AFF0F215846664AFFF72B
:103C100035FF0720A8E70022CCE7566802F1080824
:103C2000B7E70902032405918DF81D3088E7D8F81D
:103C3000006026F00043002C44D122B1019A002AF2
:103C40005AD0002B58D0002E01DA08F104080133B5
:103C500008EB8302C1E7ECB9CAB1D8F80430D8F850
:103C60000020991C4FEAD2723FF47DAF05F1580154
:103C70000133049100F08C8008F10400FFF7BAFDD5
:103C800004AB01462846AFF30080002857D108F165
:103C90000802A2E70D215846FFF7C8FE2B6A8342AF
:103CA000F5D1AB6A9845F2D14046FFF7DDFC0F2114
:103CB00002465846FFF7E2FE2A4600215846FFF723
:103CC000DDFEA6E70D2158460393FFF7AFFE2A6AF3
:103CD000039B8242B7D1AA6A9045B4D1002704223F
:103CE000C5E90B724244AB626A63D8F80020BA425D
:103CF00056DB01220292AAE7039400261C4608F133
:103D0000040A05F158070DE050460497FFF772FDCD
:103D10000022014604AB284601360AF1040AAFF33B
:103D20000080E8B9A642EFD10D215846FFF77EFE8C
:103D30000346049A0620C5E909282B6214E70446C5
:103D40000D215846FFF772FE049E022C08BFEE625A
:103D5000286208BF05F12C060620C5E9096803E7BB
:103D60002346D8F80060039C6DE74046FFF77CFCD3
:103D700008F104020446AA632846AFF30080002835
:103D80003FF4F1AE22460F215846FFF777FE40E799
:103D90000C4658460D21FFF749FE26462862DBE710
:103DA000581C08EB800080E7000000000023FFF7AC
:103DB000B1BE00BF0123FFF7ADBE00BF0223FFF776
:103DC000A9BE00BF2DE9F04106461746C4B005293B
:103DD00000F2EC80DFE811F012002A00EA004F0048
:103DE00076000600836B002F40F0E08053F8042B30
:103DF00042648363002044B0BDE8F081002B40F0B2
:103E0000D5800124816B1FFA87FE021D04FA03FC92
:103E10001CEA0E0F1CBF51F8045B42F8235001331B
:103E2000102BF3D1BC04E5D4B163E3E7012B4FEAD7
:103E30001745BFB26BD0052B40F0B88005EB0708E3
:103E4000B8F1200F00F2B2800F2D40F2B180002FA8
:103E5000D0D00268510700F11681019302AC2046D0
:103E6000FCF79CFF7A00A5F11000B16B019B013AB1
:103E700004EBC00084E0032B40F09880BDB205EB5A
:103E80001743102B4FEA174700F2908003681A0778
:103E900000F1BE8022AC2046FCF7A6FFB26B04EB1B
:103EA000C70155B10B4601EBC501D01AED001F58F3
:103EB00043F8047B8B42FAD12A442046B263FCF7D4
:103EC00071FF97E7002B71D1102F6FD80368DD06C3
:103ED00000F1968022AC2046FCF7B2FF0125204677
:103EE0000023B16B05FA03F23A4203F1010305D056
:103EF0000A4652F804CB1146C0F800C0042B00F16A
:103F00000400EFD12046B163FCF790FF72E7EA1995
:103F1000102A4BD8102D49D00268D00708D530465A
:103F200022F0030240F8502B0193FCF727FF019B7E
:103F300022AC20460193FCF721FFB26B019B002FBE
:103F40006FD04FF000087F00791E04EBC5000131EF
:103F5000043802EB810152F8047B8A4240F8047F66
:103F6000F9D1B8F1000F7BD0102D284638BF1020B2
:103F70004FEA480802AC103808F1FF3204EBC000E9
:103F80000132043801EB820251F8047B914240F87F
:103F9000047FF9D1012B43D00F2DB16302D822A8A1
:103FA000FCF7F0FE2046FCF7F5FE23E7022022E7AF
:103FB000B8F1100F02683AD9D00758D5304622F030
:103FC000010242F0020240F8502B0193FCF7DEFEA2
:103FD0003268019B12F0040F4BD122AC20460193B2
:103FE000FCF7D4FE02A8FCF7D9FEC5F11001490088
:103FF000B26B019BA8F11008013904EBC500A6E7DC
:1040000023F01003036000F5EC70FCF719FF61E783
:1040100023F00803036000F5AC70FCF7E5FE39E718
:1040200022AC04322046B263FCF7A4FEE2E6D107DC
:1040300031D5304622F0010242F0020240F8502B06
:1040400022AC0193FCF7A2FE2046FCF79FFEB26B68
:10405000019B002F7FF475AF2046FCF793FEC9E665
:10406000012BDED00F2DB2633FF6C4AEF4E7540748
:10407000B3D5304622F0040240F8D82B0193FCF768
:104080008DFE019BA9E722F0040240F8D82B019392
:10409000FCF784FEE2E622AC20460193FCF776FEB4
:1040A000B26B002FD8D0019B4BE700BF027A0346CA
:1040B0007AB9427AA2B14FF0030C4168013A4272D8
:1040C00008680A1D5A60020283F808C0000E1A60D0
:1040D00070470068013A1A7202021A60000E7047B7
:1040E000B02070472DE9F0434FF0000806460D461A
:1040F00085B02846FFF7DAFFB028044600F01381A8
:10410000070647D500F0F003802B5FD0B02B00F0FE
:104110009B801AD8902B70D0A02B12D1C3434FF4A0
:104120007F6203F007031A41010702F47F6201D5A1
:1041300042F48042002330461946FFF743FE002830
:10414000D7D0092005B0BDE8F083C02B6AD1C628BE
:1041500000F08480C72800F0EB8000F0F803C02B4B
:1041600000F0F880C82800F00381C928E9D128466A
:10417000FFF79CFF0523044601213046220304F08B
:104180000F0402F470220C442243FFF71BFE0028A8
:10419000AFD0D6E78300DBB21F1D00230DF1080965
:1041A00019460D223046CDF80090FFF725FC029B02
:1041B00060064CBFDF1BFF1800230D223046194656
:1041C000CDF800900297FFF73FFC92E72846FFF7F3
:1041D0006DFF24022043B0F5004FB2D0002304014C
:1041E00019463046A2B2FFF7EDFD0028A9D114F41C
:1041F000004F18BF4FF001087BE700F00D030D2BB7
:104200009FD0002302AF194600F00F0200973046FE
:10421000FFF7F2FB00230D22304619460097FFF707
:1042200013FC66E700F0F803D02B8AD100F00702F8
:10423000013205230121304642F40022FFF7C2FD7E
:1042400000283FF456AF7CE7A0F1B103042B00F245
:10425000B480DFE803F0431760564D002846FFF7AF
:1042600025FF04460323220304F00F0402F4702206
:104270000134304619462243FFF7A4FD00283FF4DD
:1042800038AF5EE700230DF108090D2219463046CC
:10429000CDF80090FFF7B0FB2846FFF707FF0206B6
:1042A0004FF00207029C0BD500F07F00B840044499
:1042B00028460294FFF7FAFE030607F10707F3D436
:1042C0000023B84004F50174204402900D223046CA
:1042D0001946CDF80090FFF7B7FB0AE72846FFF72D
:1042E000E5FE431EDBB20E2B02467FF623AF28E726
:1042F000002303AA009230460D221946FFF77CFBEB
:10430000F7E60023052130461A46FFF75BFD00283B
:104310003FF4EFAE15E72846FFF7C8FE0123044639
:10432000194630462AE7B8F1000F36D0002009E7D9
:104330002846FFF7BBFE431EDBB20E2B02463FF6BC
:1043400000AF002304213046FFF73CFD00283FF476
:10435000D0AEF6E6032300F00F02013230461946D4
:1043600042F42022FFF72EFD00283FF4C2AEE8E61B
:104370002846FFF79BFE0246012102F0F00402F0FE
:104380000F0210340A440523304642EA0432FFF794
:1043900019FD00283FF4ADAED3E602AC43464146DA
:1043A0000E2230460094FFF727FB43460F2241467A
:1043B00030460094FFF748FBB8E700F0FC03B42B4D
:1043C0003FF4BFAE012300F007021A4430461946FD
:1043D00042F40022FFF7F6FC00283FF48AAEB0E674
:1043E000062008B503F0B2FC012006F065FB00BF13
:1043F0000FB400B5074A83B004AB106853F8042B20
:104400008168019300F008F803B05DF804EB04B094
:10441000704700BF840100202DE9F04FDDB09146C8
:104420001C460891834603F0C3FC03680E941846AB
:10443000199303F059FD0346082200212CA8189374
:1044400003F0FEFBBBF1000F04D0DBF83430002B8F
:1044500001F08C80089B5A6EB3F90C30D10702D45E
:104460009A0540F1B8869F0407D4089943F4005395
:104470004A6E8B8122F400524A661E0740F1C780C3
:10448000089A1269002A00F0C28003F01A020A2A70
:1044900000F0CC80002300249E46CDE93133002378
:1044A00033AA9046CDE91434CDE91AEECDE91CEEDD
:1044B0003092CDF85CE0CDF82CE0CDF848E0CDF8B6
:1044C00024B0CDF81890069E099D894B2CAFD3F8E7
:1044D000E44003F067FC3246034628A928460097CB
:1044E000A047002800F0C180C0F2B780289B252B90
:1044F00001D00644E9E7069B0546F71A40F0B9806B
:1045000000224FF0FF3391460A937378741C8DF8A4
:1045100097200C921F460134A7F120035A2B00F27A
:10452000E980DFE813F0D302E700E700CF02E700FD
:10453000E700E700AF02E700E7006A008C02E7004F
:1045400074029502E70091025B005B005B005B0078
:104550005B005B005B005B005B00E700E700E700DF
:10456000E700E700E700E7006A01E70004022C0328
:104570006A016A016A01E700E700E700E700280333
:10458000E700E700E502E700E700E7001B02E700BD
:104590001603E700E7001907E700E700E700E70078
:1045A000E700E700E700E7006A01E70004024C02C9
:1045B0006A016A016A0182024C020002E700780285
:1045C000E70055033E0744030002E7001B027200A8
:1045D0003A07E700E7004107E70072000022A7F171
:1045E000300314F8017B02EB820203EB4202A7F1D5
:1045F0003003092BF5D90C928EE70E9B53F8042B50
:10460000002A0C920E93C0F2FF81237882E7089D66
:104610005846294603F0C8F9002841F0E083B5F96F
:104620000C3003F01A020A2A7FF434AF0899B1F96A
:104630000E20002AFFF62EAF4A6ED00702D49A054C
:1046400041F1D58123464A465846089901F01AFDA2
:104650000B900B985DB0BDE8F08F082200212CA8CC
:1046600003F0EEFA012006442FE7069B0546F71AF1
:1046700012D0069BC8E90037329B3B443293319BF2
:104680000133072B319313DC08F108080B9B3B44E3
:104690000B93002D7FF434AF329BDDF824B0002B58
:1046A00041F0E9800022089B3192B3F90C3012E00E
:1046B00030AADDE9081001F061FD48B90DF1CC0820
:1046C000E4E7A3460D9B1BB158460D9904F0DAFCB4
:1046D000089BB3F90C30089A526ED40740F1198147
:1046E000590601F188830B985DB0BDE8F08F00BFDB
:1046F000180000200F94002FCED04FF0010B0022A5
:1047000043AB8DF80C71CDF81CB00693CDE91022A7
:104710008DF897200D920A92139219F0020302D09D
:1047200007990231079119F08404329D05D10C9943
:1047300007980E1A002E00F3A88082B10122C8F853
:104740000420319A013501320DF19701072A329583
:104750003192C8F8001000F3F28308F108087BB129
:104760000223C8F80430319B0235013326AA072BF7
:1047700032953193C8F8002000F3EF8308F1080860
:10478000802C00F0B8820A9BA3EB0B06002E00F3EE
:10479000F68219F4807F40F02A82069B5D44C8F8B7
:1047A0000030319BC8F804B00133072B32953193A8
:1047B00000F3468308F1080819F0040F05D00C9B9C
:1047C000079A9C1A002C00F3D483DDE90B32079979
:1047D0008A42ACBF9B185B180B93002D40F00783F7
:1047E000002331930D9B1BB10D99099804F04AFCED
:1047F0000DF1CC080F9B069365E60E9B0F940733D3
:1048000023F00703F3E802450E9325F000432193BC
:104810002094DDE920AB4FF0FF3250465946B04BB3
:10482000CDE91445FCF76EFC002840F03C854FF0C4
:10483000FF3250465946AA4BFCF746FC002840F090
:1048400032850022002320462946FCF733FC00284D
:1048500041F0CE819DF8972000214FF0030BA14C31
:10486000A14B29F080090D91CDF81CB0472FC8BF8E
:104870001C46CDE9101106940A911391002A3FF4C9
:104880004CAF079B0133079347E7102E319A41F352
:104890003E82DFF858C241462846B846CDE91E346C
:1048A000DDE908454FF0100A6746CDF858C004E02E
:1048B000103E102E01F1080115DD01321030072ADB
:1048C000C1E9007ACDE93120F2DD2146284630AA3F
:1048D00001F054FC002840F04686DDE93120103E0E
:1048E000102E33A9E9DC4746DDE91E34884605462B
:1048F000013216993544072ACDE93125C8F8001050
:10490000C8F8046000F31E869DF8972008F1080897
:1049100013E798053FF5E4AE089CA06D03F096FA06
:10492000B4F90C30DCE6237849F02009F2E50E9B5F
:10493000432F0F9403F1040500F06A8519F0100F5E
:1049400040F066850E9B43AC1B688DF80C3101234B
:104950009B46079300220E950694D7E600230E9EF1
:104960008DF8973056F8043B0F940693002B00F017
:104970003E85532F00F0118619F01003109340F07C
:104980000C860A9B5F1C00F080871A4610990698D7
:1049900003F05EFA0D90002801F022830D9B069A29
:1049A0007327A3EB020B109B2BEAEB719DF897206A
:1049B0000E960A930791139311930D935EE719F0E6
:1049C000200F0F9400F0E2800E9B073323F00703C3
:1049D0001846596850F8083B0A460E900029C0F264
:1049E00048840A99013100F09A8253EA020129F0C1
:1049F000800B40F095820A9A002A40F096825CABC8
:104A0000D9460693934669E10C9B5B420C9323784D
:104A100049F004097EE523786C2B03BF637849F0E5
:104A20002009013449F0100974E52378682B03BF8D
:104A3000637849F40079013449F040096AE52B2391
:104A40008DF89730237865E5237849F0800961E592
:104A5000224612F8017B2A2F01F0DD82A7F13003F4
:104A6000092B144698BF002201F2558114F8017BEE
:104A700002EB820203EB4202A7F13003092BF5D9C6
:104A80000A9249E5099D284603F092F943681846C1
:104A90001C9303F029FA034628461D931D4603F094
:104AA00087F983681793002D3FF4AFAD179A2378E9
:104AB000002A3FF42FAD1278002A3FF42BAD49F4C1
:104AC000806927E5237849F0010923E59DF89720BF
:104AD0002378002A7FF41EAD20228DF8972019E557
:104AE000FFFFEF7F0CAB000810AB000860AB0008C5
:104AF0000F9449F0100919F0200200F04F830E9B2B
:104B0000073323F0070319465A6851F8083B0E9102
:104B1000002129F4806B00200A9C8DF89700651C09
:104B200000F0BF8053EA02002BF0800940F0B8800B
:104B3000002C40F02085002940F08F841BF0010BF1
:104B400000F07E8330238DF86F310DF26F130693E2
:104B5000C4E00F9449F0100B1BF0200200F02D83ED
:104B60000E9B0121073323F0070318465A6850F8BB
:104B7000083B0E90CFE7237849F00809CAE449F0D2
:104B8000100919F0200F0F947FF41EAF0E9A19F040
:104B9000100F52F8043B0E9240F0668319F0400F5C
:104BA00000F05E8343F3C03211461BB216E747F6AE
:104BB00030030E9AA848ADF8983052F8043B022111
:104BC0000E92782700220F9449F0020B1A90A2E768
:104BD00019F0200F0F9400F055830E9B0B9A1B6861
:104BE0001A60D2175A600E9B04330E9302E6652FAB
:104BF00040F33881DDE9140100220023FCF750FA6C
:104C0000002800F0F1810123C8F80430319B934A59
:104C100001330135072B32953193C8F8002000F39A
:104C2000AF8408F10808279B129A934280F2DB8236
:104C3000189B199A1D44C8E90023319B3295013312
:104C4000072B319300F3C78308F10808129B5C1E01
:104C5000002C7FF7B1AD102C319B40F30985DDE9C5
:104C600008AB7F4F1026169705E008F10808103CA6
:104C7000102C40F3FF8401331035072BC8E9007670
:104C8000CDE93135F1DD5146584630AA01F076FACA
:104C900000287FF417ADDDE931350DF1CC08E6E7EA
:104CA000CB46012900F03C81022900F024815CAC54
:104CB00003F00701DB0843EA4273D208303153EABC
:104CC0000205204604F8011DF2D11BF0010F0694E5
:104CD00040F00B825CABD946A3EB040B0A9A00238D
:104CE0005A45B8BF5A46CDE9103307920D939DF847
:104CF00097201393C2E50C9B079A9E1A002E7FF70C
:104D000042AD102E319B41F3EE8055484246DDE91D
:104D1000088A294610240546169004E0103E102EFD
:104D200002F1080215DD01331031072BC2E90054EE
:104D3000CDE93131F2DD4146504630AA01F01EFA8C
:104D4000002840F08684DDE93131103E102E33AA70
:104D5000E9DC90460D460133169A3544072BCDE920
:104D60003135C8F80020C8F8046000F327830A9B97
:104D700008F10808A3EB0B06002E7FF70AAD384AAE
:104D8000102E319B169223DD2A46DDE908544FF0A0
:104D9000100A04E0103E102E08F1080817DD013358
:104DA0002F491032072BC8E9001ACDE93132F1DD65
:104DB0002946204630AA01F0E1F900287FF481ACB1
:104DC000DDE93132103E102E0DF1CC08E7DC15463E
:104DD0000133169A3544072BCDE93135C8F8002048
:104DE000C8F8046000F3CD8108F10808D1E430AAC6
:104DF000DDE9081001F0C2F900283FF4F1ACDDF85C
:104E000024B05FE4189B19991D44C8E90013319B35
:104E100032950133072B319300F3DA8508F1080846
:104E2000002AC0F2BB87069A0133C8F80020129A04
:104E3000072B1544CDE93135C8F804207FF7BAAC0B
:104E4000DDE9081030AA01F099F90028D7D1329D88
:104E50000DF1CC08B0E400BF1CAB00084CAB00085F
:104E600050AB0008129B319E012B069B05F10105FA
:104E7000C8F800304FF0010306F10106CDE93165B5
:104E800008F10807C8F8043040F33D81072E00F30D
:104E9000F582189B0136199A1D44072EC7E9002395
:104EA000CDE9316500F3DE820837129B0022DDE98F
:104EB000140103F1FF380023FCF7F2F8002840F05A
:104EC0003581069C013601344544072ECDE9316514
:104ED0003C60C7F8048000F31D8108371B9B013636
:104EE0001D447B60072E2AABCDE931653B60A7DC12
:104EF00007F1080860E41A9C5CA903F00F00205C2D
:104F00001B0943EA0273120901F8010D53EA02007A
:104F1000F3D15CABD9460691A3EB010BDEE6CB46A1
:104F20000A2B72F1000180F0B58230338DF86F31B9
:104F30000DF26F13D94606934FF0010BCEE630AA5F
:104F4000DDE90810169301F019F900287FF457AF36
:104F5000329D169B0DF1CC0801E430AADDE9081062
:104F600001F00CF900287FF44AAF329D0DF1CC0816
:104F700006E4102C319B40F30387DDE908A9B54F07
:104F80001026169704E0103C102C08F1080816DDD6
:104F900001331035072BC8E90076CDE93135F2DD54
:104FA0005146484630AA01F0E9F8002840F0548301
:104FB000DDE93135103C102C0DF1CC08E8DC013373
:104FC000169A2544072BC8E90024CDE931357FF72F
:104FD000FCABDDE9081030AA01F0D0F800287FF41E
:104FE0000EAF329DFFF7F1BB279A002A40F30081F4
:104FF000109F129B069A9F42A8BF1F46002F02EBEC
:10500000030B0BDD319B3D440133072BC8E900271F
:105010003295319300F3608608F10808109E002F46
:10502000A8BFF61B002E00F33983DDF818A0109BF3
:1050300019F4806F9A4440F03B85279C129B9C4258
:1050400003DB19F0010F00F00284189B199A1D442C
:10505000C8E90023319B32950133072B319300F3CC
:10506000488608F10808129BABEB0A061C1BA642F7
:10507000A8BF2646002E0DDD319B35440133072B9A
:10508000C8F800A0C8F804603295319300F3478651
:1050900008F10808002EA8BFA41B002C7FF78CABDA
:1050A000102C319B40F3E482DDE908AB6A4F1026F7
:1050B000169705E008F10808103C102C40F3DA823E
:1050C00001331035072BC8E90076CDE93135F1DD24
:1050D0005146584630AA01F051F800287FF4F2AA50
:1050E000DDE931350DF1CC08E6E7302900F06081CB
:1050F0003023069A023802F8013C5CABD946069090
:10510000A3EB000BEAE519F0010F7FF4BFAE072E09
:105110007FF7E4AEDDE9081030AA01F02FF800288F
:105120007FF46DAEDDE9316533AFD7E6129B012B1D
:105130007FF7D4AE112B40F39287DDE908BA464BD6
:10514000CDF8189010249946169306E00837A8F178
:105150001008B8F1100F40F3C88201361035072E41
:10516000C7E90094CDE93165F0DD5946504630AAD3
:1051700001F004F8002840F06C82DDE9316533AFBE
:10518000E5E730AADDE9081000F0F8FF00287FF419
:1051900036AE329D0DF1CC08FFF7FBBA0E9951F8EF
:1051A000043B0E9119F010017FF4B2AC19F04000ED
:1051B00000F0AF820A469BB2AAE40E9951F8043B74
:1051C0000E911BF0100143D11BF040003BD00A466A
:1051D0009BB201219FE4089DA86D02F035FEB5F950
:1051E0000C30FFF740B919F0010F3FF4E5AA1FE5B5
:1051F0000123C8F80430319B184901330135072BCE
:1052000032953193C8F8001000F33E8508F1080884
:10521000002A7FF4F7AD129A09F0010313433FF41B
:10522000CBAA189B199A1D44C8E90023319B3295DB
:105230000133072B319300F3CB8308F10808F2E523
:105240005CAB06934AE51BF400721CBF0246DBB25E
:10525000012160E460AB000850AB00084CAB0008D3
:1052600019F4007F40F00183DA1711460029BFF6D8
:10527000B8AB5B42CB464FF02D004FF0010162EB23
:10528000420249E419F0100F40F0028219F0400F79
:1052900040F0E58219F4007F00F0FA810E9B0B9A32
:1052A0001B681A709FE4DDE9140102460B46FBF708
:1052B00029FF002840F02D86612F00F00B85412F3B
:1052C00000F0F5820A9B013300F01A8627F02003D4
:1052D000472B04D10A9B002B08BF01230A9349F4F2
:1052E0008070DDE91412002A4FF000031690CDF80B
:1052F0004490C0F2D784CDE922121E930D93A7F1FA
:105300004103252B00F20C82DFE813F07D030A0233
:105310000A020A0276037A030A020A020A020A024F
:105320000A020A020A020A020A020A020A020A021D
:105330000A020A020A020A020A020A020A020A020D
:105340000A020A020A020A020A020A020A020A02FD
:105350000A020A0276037A03C14B0F941A9319F0DA
:1053600020026CD00E9B073323F0070319465A68BE
:1053700051F8083B0E9119F0010F09D053EA0201D0
:1053800006D030218DF8997049F002098DF89810F7
:10539000022129F4806BFFF7BEBBCB460F94FFF7C9
:1053A000DBBB0F94FFF7A7BBAE4B0F941A93D6E766
:1053B000069A5CABD946A3EB020B8FE430AADDE979
:1053C000081000F0DBFE00287FF419AD329D0DF1CE
:1053D000CC08FFF7D8B930AADDE9081000F0CEFEFE
:1053E00000287FF40CAD329D0DF1CC082EE40A9B11
:1053F000069A062B28BF06239B489B46CDE9102220
:1054000007930E960A920D9206901392FFF736BA02
:10541000082200212EA802F013FC0E9A43AC21466C
:10542000126809982EAB02F08DFDB0F1FF3F834664
:1054300000F0328520EAE0730793FFF78BBA0E99EC
:1054400051F8043B0E9119F0100194D119F040006D
:1054500000F059810A469BB28DE75CABDDF828B0BD
:1054600006933BE430AADDE9081000F087FE00282F
:105470007FF4C5ACDDE9316533AF16E530AADDE96F
:10548000081000F07BFE00287FF4B9ACDDE931653F
:1054900033AFFEE40BF48061CDE9067B4FF0000EE4
:1054A0004FF0CC3A05240F46DFF8C0910DF5B87CDB
:1054B000CDF8348006E00A2B72F1000235D3434662
:1054C0002A46B446991841F10001A9FB010525F0CF
:1054D000030000EB9500091A581A0AFB00F562F167
:1054E000000BA0FB098009FB0B5508F0010B0544DC
:1054F000ABFB040B40184FEA5808303048EAC57837
:105500000EF1010E0CF1FF360CF8010C6D08002FA6
:10551000D1D0179909788E45CDD1BEF1FF0FCAD0F1
:105520000A2B72F1000280F08183DDE9067B5CAB1F
:10553000D946DDF83480CDF848E00696A3EB060B9B
:10554000FFF7CCBB30AADDE90810169300F016FE79
:1055500000287FF454AC9DF89720329D169B0DF1E6
:10556000CC08FFF7EAB8AB46FFF7ACB8584602F0F4
:1055700059F8FEF76FBF0129CB467FF495ABD4E411
:1055800030AADDE9081000F0F9FD00287FF437ACFF
:10559000329D0DF1CC08FFF746BB069B2EAC0822CE
:1055A00000212046299302F04BFBDDF828A0BAF138
:1055B000FF3F00F04B830025CDF81C90AB46DDF893
:1055C00024900DE02346484643A902F0BBFC431C4F
:1055D000584400F06184504507DC00F0EE848346B7
:1055E000299B5A590435002AECD1DDF81C90BBF1F7
:1055F000000F00F03A83BBF1630F40F30184099878
:105600000BF1010103F044FE0690002800F04484F1
:10561000069B0D9308220021204602F011FB5B46F9
:1056200006990998009429AA02F0B2FC834540F03B
:105630001E8500232BEAEB720792069ACDE9103300
:1056400002F80B309DF897200E960A931393FFF7FC
:1056500015B9D346FFF736B8CB46FFF733B800BFCE
:1056600030AB00081CAB000844AB0008CDCCCCCC60
:10567000AE4A1692169A01332544072BC8F800202B
:10568000C8F80440CDE931357FF794A8FFF7D8BBBF
:105690000E9B0B9A1B681A60FFF7A5BA102E319B60
:1056A00040F3C884DDE908A4A0492A4610270D4626
:1056B000169105E008F10808103E102E40F39D8277
:1056C00001331032072BC8E90057CDE93132F1DD43
:1056D0005146204630AA00F051FD00287EF4F1AF7B
:1056E000DDE931320DF1CC08E6E7DDF8189001363E
:1056F000169B4544072ECDE931653B60C7F8048011
:105700007FF7EBAB06E519F400721CBF0246DBB273
:1057100031E619F400721CBF0246DBB2FFF7F8B99C
:1057200002230A9ECDE900362EAB049329AB0393E6
:1057300027AB02930998DDE9222302F01DFD672FB4
:10574000069000F0FC82472F00F0BB83069B27F0F9
:105750002004462C03EB060505D11B78302B00F006
:10576000F083279E35440022DDE922010023FBF768
:1057700097FC002800F075812B46069A9B1A12931D
:10578000279A472C109200F05981462C00F0DE82B7
:10579000531E612F279300F03B84412F40F0578127
:1057A00050210120002BAEBF2B22C2F101032D227C
:1057B000092B8DF8A8108DF8A92040F35F830DF117
:1057C000BF0632465A4C19461046A4FB0352D20873
:1057D00002EB8205A3EB450303F130056329134671
:1057E00000F8015C00F1FF32EDDC303302F8013CDF
:1057F000831EB34280F01A840DF1A90213F8011B35
:10580000B34202F8011FF9D15CAB181AA0F1AD0345
:105810001B93129B1B9A012B03EB020B40F3748327
:10582000189B9B44119B2BEAEB7223F4806343F497
:1058300080790023CDE91033139307921E9B002B30
:1058400040F008819DF897200A93FFF717B8129B44
:10585000ABEB0A061C1BA642A8BF26461AE40E9B09
:105860000B9A1B681A80FFF7BEB943F3C0121146AA
:105870005BB2FFF7B3B85846089930AA00F07EFC37
:1058800000283EF40FAFFEF723BF06980E9602F0F5
:105890002BFB109B73270A93139311930D9320EA0C
:1058A000E07383469DF897200793FEF7E7BF5823E0
:1058B0008DF8993030238DF8983049F00203119318
:1058C0000A9B632B00F3058300230D9343AB0693E0
:1058D00049F481731693159B002BC0F2E4810023D9
:1058E0001E93DDE91434CDE92234612F7FF407AD36
:1058F000DDE9220127AA02F057FB00224FF07F5377
:10590000FAF776FE0022002382468B46FBF7C8FB9F
:10591000002840F0EC82074B07930A9BCDE91278F0
:1059200003F1FF394C46069E0CE000BF50AB000867
:10593000CDCCCCCC1CAB000800220023FBF7B0FB85
:10594000F0B93C460022B54B504659461096FAF73E
:105950004FFE89468046FBF7EBFB0546FAF7DEFD76
:105960000B46024649464046FAF78AFC079B8246A8
:105970005B5D8B4606F8013B631C04F1FF37DBD10E
:105980000022DDE9127850465946A54BA146FBF7A7
:10599000AFFB002840F03982504659460022A04B08
:1059A000FBF77EFB10B1EA0700F12F82B9F1000F7F
:1059B000C0F24682302209F10103334406F8012B7C
:1059C000B342FBD1069A27F020049B1A1293D7E624
:1059D00030AADDE9081000F0D1FB00287FF40FAAFF
:1059E000DDE93135279A0DF1CC08FFF719BA886D3A
:1059F00002F02CFAFEF726BE0A9A0223561C91E604
:105A000003230A9E8EE627AADDE9220102F0CCFAE2
:105A100000224FF07F53FAF7EBFD0022002382466D
:105A20008B46FBF73DFB002840F061827D4B0793DE
:105A300073E7069A2E9B9B1A279A1293D31C1092F7
:105A400002DB0A9B934218DA531E023F2793002081
:105A5000F9B2A7E62D2200238DF897200A93FEF7CE
:105A600010BF2E9BAB42BFF488AE30215A1C2E9241
:105A700019702E9B9D42F9D87FE6129B934200F34A
:105A80008381119BD80740F15A82189B02EB030BCC
:105A9000119B590502D5002A00F3638267272BEA80
:105AA000EB73DDF858900793002313931193C5E629
:105AB000119B42462946CDF818B05546CDF828909E
:105AC000594FDDF84C90DDF87480DDF85CA0DDF80E
:105AD00024B073B3B9F1000F77D009F1FF393198D1
